{
  "address": "0x04c0dC00c0Ed701AF1A5B3c7eaeB1B644F2c8042",
  "abi": [
    {
      "inputs": [
        {
          "internalType": "address",
          "name": "_owner",
          "type": "address"
        },
        {
          "internalType": "address",
          "name": "_stakeTokenAddress",
          "type": "address"
        }
      ],
      "stateMutability": "nonpayable",
      "type": "constructor"
    },
    {
      "anonymous": false,
      "inputs": [
        {
          "indexed": false,
          "internalType": "uint256",
          "name": "added",
          "type": "uint256"
        },
        {
          "indexed": false,
          "internalType": "uint256",
          "name": "totalSupply",
          "type": "uint256"
        }
      ],
      "name": "AvailableRewardsUpdated",
      "type": "event"
    },
    {
      "anonymous": false,
      "inputs": [
        {
          "indexed": false,
          "internalType": "address",
          "name": "account",
          "type": "address"
        }
      ],
      "name": "Paused",
      "type": "event"
    },
    {
      "anonymous": false,
      "inputs": [
        {
          "indexed": false,
          "internalType": "address",
          "name": "token",
          "type": "address"
        },
        {
          "indexed": false,
          "internalType": "uint256",
          "name": "amount",
          "type": "uint256"
        }
      ],
      "name": "Recovered",
      "type": "event"
    },
    {
      "anonymous": false,
      "inputs": [
        {
          "indexed": false,
          "internalType": "address",
          "name": "account",
          "type": "address"
        },
        {
          "indexed": false,
          "internalType": "uint256",
          "name": "amount",
          "type": "uint256"
        }
      ],
      "name": "RewardPaid",
      "type": "event"
    },
    {
      "anonymous": false,
      "inputs": [
        {
          "indexed": true,
          "internalType": "bytes32",
          "name": "role",
          "type": "bytes32"
        },
        {
          "indexed": true,
          "internalType": "bytes32",
          "name": "previousAdminRole",
          "type": "bytes32"
        },
        {
          "indexed": true,
          "internalType": "bytes32",
          "name": "newAdminRole",
          "type": "bytes32"
        }
      ],
      "name": "RoleAdminChanged",
      "type": "event"
    },
    {
      "anonymous": false,
      "inputs": [
        {
          "indexed": true,
          "internalType": "bytes32",
          "name": "role",
          "type": "bytes32"
        },
        {
          "indexed": true,
          "internalType": "address",
          "name": "account",
          "type": "address"
        },
        {
          "indexed": true,
          "internalType": "address",
          "name": "sender",
          "type": "address"
        }
      ],
      "name": "RoleGranted",
      "type": "event"
    },
    {
      "anonymous": false,
      "inputs": [
        {
          "indexed": true,
          "internalType": "bytes32",
          "name": "role",
          "type": "bytes32"
        },
        {
          "indexed": true,
          "internalType": "address",
          "name": "account",
          "type": "address"
        },
        {
          "indexed": true,
          "internalType": "address",
          "name": "sender",
          "type": "address"
        }
      ],
      "name": "RoleRevoked",
      "type": "event"
    },
    {
      "anonymous": false,
      "inputs": [
        {
          "indexed": true,
          "internalType": "address",
          "name": "user",
          "type": "address"
        },
        {
          "indexed": false,
          "internalType": "uint256",
          "name": "amount",
          "type": "uint256"
        }
      ],
      "name": "Staked",
      "type": "event"
    },
    {
      "anonymous": false,
      "inputs": [
        {
          "indexed": false,
          "internalType": "address",
          "name": "account",
          "type": "address"
        }
      ],
      "name": "Unpaused",
      "type": "event"
    },
    {
      "anonymous": false,
      "inputs": [
        {
          "indexed": true,
          "internalType": "address",
          "name": "user",
          "type": "address"
        },
        {
          "indexed": false,
          "internalType": "uint256",
          "name": "amount",
          "type": "uint256"
        }
      ],
      "name": "Withdrawn",
      "type": "event"
    },
    {
      "inputs": [],
      "name": "CONFIG_ROLE",
      "outputs": [
        {
          "internalType": "bytes32",
          "name": "",
          "type": "bytes32"
        }
      ],
      "stateMutability": "view",
      "type": "function"
    },
    {
      "inputs": [],
      "name": "DEFAULT_ADMIN_ROLE",
      "outputs": [
        {
          "internalType": "bytes32",
          "name": "",
          "type": "bytes32"
        }
      ],
      "stateMutability": "view",
      "type": "function"
    },
    {
      "inputs": [],
      "name": "claimRewards",
      "outputs": [],
      "stateMutability": "nonpayable",
      "type": "function"
    },
    {
      "inputs": [
        {
          "internalType": "bytes32",
          "name": "role",
          "type": "bytes32"
        }
      ],
      "name": "getRoleAdmin",
      "outputs": [
        {
          "internalType": "bytes32",
          "name": "",
          "type": "bytes32"
        }
      ],
      "stateMutability": "view",
      "type": "function"
    },
    {
      "inputs": [
        {
          "internalType": "address",
          "name": "user",
          "type": "address"
        }
      ],
      "name": "getStakedBalance",
      "outputs": [
        {
          "internalType": "uint256",
          "name": "stakedBalance",
          "type": "uint256"
        }
      ],
      "stateMutability": "view",
      "type": "function"
    },
    {
      "inputs": [
        {
          "internalType": "address",
          "name": "user",
          "type": "address"
        }
      ],
      "name": "getStakingReward",
      "outputs": [
        {
          "internalType": "uint256",
          "name": "rewardAmount",
          "type": "uint256"
        }
      ],
      "stateMutability": "view",
      "type": "function"
    },
    {
      "inputs": [
        {
          "internalType": "bytes32",
          "name": "role",
          "type": "bytes32"
        },
        {
          "internalType": "address",
          "name": "account",
          "type": "address"
        }
      ],
      "name": "grantRole",
      "outputs": [],
      "stateMutability": "nonpayable",
      "type": "function"
    },
    {
      "inputs": [
        {
          "internalType": "bytes32",
          "name": "role",
          "type": "bytes32"
        },
        {
          "internalType": "address",
          "name": "account",
          "type": "address"
        }
      ],
      "name": "hasRole",
      "outputs": [
        {
          "internalType": "bool",
          "name": "",
          "type": "bool"
        }
      ],
      "stateMutability": "view",
      "type": "function"
    },
    {
      "inputs": [],
      "name": "pause",
      "outputs": [],
      "stateMutability": "nonpayable",
      "type": "function"
    },
    {
      "inputs": [],
      "name": "paused",
      "outputs": [
        {
          "internalType": "bool",
          "name": "",
          "type": "bool"
        }
      ],
      "stateMutability": "view",
      "type": "function"
    },
    {
      "inputs": [
        {
          "internalType": "bytes32",
          "name": "role",
          "type": "bytes32"
        },
        {
          "internalType": "address",
          "name": "account",
          "type": "address"
        }
      ],
      "name": "renounceRole",
      "outputs": [],
      "stateMutability": "nonpayable",
      "type": "function"
    },
    {
      "inputs": [
        {
          "internalType": "bytes32",
          "name": "role",
          "type": "bytes32"
        },
        {
          "internalType": "address",
          "name": "account",
          "type": "address"
        }
      ],
      "name": "revokeRole",
      "outputs": [],
      "stateMutability": "nonpayable",
      "type": "function"
    },
    {
      "inputs": [],
      "name": "rewardRate",
      "outputs": [
        {
          "internalType": "uint256",
          "name": "",
          "type": "uint256"
        }
      ],
      "stateMutability": "view",
      "type": "function"
    },
    {
      "inputs": [],
      "name": "rewardToken",
      "outputs": [
        {
          "internalType": "address",
          "name": "",
          "type": "address"
        }
      ],
      "stateMutability": "view",
      "type": "function"
    },
    {
      "inputs": [
        {
          "internalType": "uint256",
          "name": "amount",
          "type": "uint256"
        }
      ],
      "name": "stake",
      "outputs": [],
      "stateMutability": "nonpayable",
      "type": "function"
    },
    {
      "inputs": [],
      "name": "stakeToken",
      "outputs": [
        {
          "internalType": "address",
          "name": "",
          "type": "address"
        }
      ],
      "stateMutability": "view",
      "type": "function"
    },
    {
      "inputs": [
        {
          "internalType": "bytes4",
          "name": "interfaceId",
          "type": "bytes4"
        }
      ],
      "name": "supportsInterface",
      "outputs": [
        {
          "internalType": "bool",
          "name": "",
          "type": "bool"
        }
      ],
      "stateMutability": "view",
      "type": "function"
    },
    {
      "inputs": [],
      "name": "totalStaked",
      "outputs": [
        {
          "internalType": "uint256",
          "name": "amount",
          "type": "uint256"
        }
      ],
      "stateMutability": "view",
      "type": "function"
    },
    {
      "inputs": [],
      "name": "unpause",
      "outputs": [],
      "stateMutability": "nonpayable",
      "type": "function"
    },
    {
      "inputs": [
        {
          "internalType": "uint256",
          "name": "amount",
          "type": "uint256"
        }
      ],
      "name": "withdraw",
      "outputs": [],
      "stateMutability": "nonpayable",
      "type": "function"
    }
  ],
  "transactionHash": "0xbdb7996ae725fec445b021047bac8238e84dc5270ea789dd98a317173f3237ec",
  "args": [
    "0x6E4f821eD0a4a99Fc0061FCE01246490505Ddc91",
    "0x2584385A9135b0B73Fb4c118B3f67724371A4F89"
  ],
  "numDeployments": 1,
  "solcInputHash": "01908ade0ed15e37fbbafd788101de9b",
  "bytecode": "0x6080604052670de0b6b3a76400006009553480156200001d57600080fd5b5060405162002513380380620025138339810160408190526200004091620001d9565b60016000819055805460ff19169055600380546001600160a01b0319166001600160a01b03831617905560405130906200007a90620001ae565b6001600160a01b039091168152602001604051809103906000f080158015620000a7573d6000803e3d6000fd5b50600480546001600160a01b0319166001600160a01b0392909216919091179055620000d560008362000109565b620001017f82db594318110a04b6349ce48645aa69f0892751bc893d15e61d9e2b9c4630f58362000109565b505062000211565b60008281526002602090815260408083206001600160a01b038516845290915290205460ff16620001aa5760008281526002602090815260408083206001600160a01b03851684529091529020805460ff19166001179055620001693390565b6001600160a01b0316816001600160a01b0316837f2f8788117e7eff1d82e926ec794901d17c78024a50270940304540a733656f0d60405160405180910390a45b5050565b611103806200141083390190565b80516001600160a01b0381168114620001d457600080fd5b919050565b60008060408385031215620001ed57600080fd5b620001f883620001bc565b91506200020860208401620001bc565b90509250929050565b6111ef80620002216000396000f3fe608060405234801561001057600080fd5b506004361061016c5760003560e01c806378f4d413116100cd578063a217fddf11610081578063a694fc3a11610066578063a694fc3a14610301578063d547741f14610314578063f7c618c11461032757600080fd5b8063a217fddf146102d2578063a4d19feb146102da57600080fd5b8063817b1cd2116100b2578063817b1cd2146102895780638456cb591461029157806391d148541461029957600080fd5b806378f4d4131461026e5780637b0a47ee1461028157600080fd5b8063372500ab116101245780633f4ba83a116101095780633f4ba83a1461023657806351ed6a301461023e5780635c975abb1461026357600080fd5b8063372500ab146102055780633a02a42d1461020d57600080fd5b80632e1a7d4d116101555780632e1a7d4d146101ca5780632f2ff15d146101df57806336568abe146101f257600080fd5b806301ffc9a714610171578063248a9ca314610199575b600080fd5b61018461017f366004610f6d565b610338565b60405190151581526020015b60405180910390f35b6101bc6101a7366004610f97565b60009081526002602052604090206001015490565b604051908152602001610190565b6101dd6101d8366004610f97565b61036f565b005b6101dd6101ed366004610fcc565b6105b2565b6101dd610200366004610fcc565b6105dc565b6101dd610668565b6101bc61021b366004610ff8565b6001600160a01b031660009081526005602052604090205490565b6101dd6107e3565b6003546001600160a01b03165b6040516001600160a01b039091168152602001610190565b60015460ff16610184565b6101bc61027c366004610ff8565b610818565b6009546101bc565b6006546101bc565b6101dd610823565b6101846102a7366004610fcc565b60009182526002602090815260408084206001600160a01b0393909316845291905290205460ff1690565b6101bc600081565b6101bc7f82db594318110a04b6349ce48645aa69f0892751bc893d15e61d9e2b9c4630f581565b6101dd61030f366004610f97565b610855565b6101dd610322366004610fcc565b6109f9565b6004546001600160a01b031661024b565b60006001600160e01b03198216637965db0b60e01b148061036957506301ffc9a760e01b6001600160e01b03198316145b92915050565b6002600054036103c65760405162461bcd60e51b815260206004820152601f60248201527f5265656e7472616e637947756172643a207265656e7472616e742063616c6c0060448201526064015b60405180910390fd5b6002600055336103d4610a1e565b600855426007556001600160a01b0381161561041a576001600160a01b038116600090815260056020526040902061040b82610a7c565b60028201556008546003909101555b6000821161046a5760405162461bcd60e51b815260206004820152601160248201527f43616e6e6f74207769746864726177203000000000000000000000000000000060448201526064016103bd565b33600090815260056020526040902080548311156104ca5760405162461bcd60e51b815260206004820181905260248201527f43616e6e6f74207769746864726177206d6f7265207468616e207374616b656460448201526064016103bd565b828160000160008282546104de9190611029565b9250508190555082600660008282546104f79190611029565b909155505060035460405163a9059cbb60e01b8152336004820152602481018590526001600160a01b039091169063a9059cbb906044016020604051808303816000875af115801561054d573d6000803e3d6000fd5b505050506040513d601f19601f820116820180604052508101906105719190611040565b5060405183815233907f7084f5476618d8e60b11ef0d7d3f06914655adb8793e28ff7f018d4c76d505d5906020015b60405180910390a25050600160005550565b6000828152600260205260409020600101546105cd81610ae1565b6105d78383610aeb565b505050565b6001600160a01b038116331461065a5760405162461bcd60e51b815260206004820152602f60248201527f416363657373436f6e74726f6c3a2063616e206f6e6c792072656e6f756e636560448201527f20726f6c657320666f722073656c66000000000000000000000000000000000060648201526084016103bd565b6106648282610b8d565b5050565b6002600054036106ba5760405162461bcd60e51b815260206004820152601f60248201527f5265656e7472616e637947756172643a207265656e7472616e742063616c6c0060448201526064016103bd565b60026000556106c7610c10565b336106d0610a1e565b600855426007556001600160a01b03811615610716576001600160a01b038116600090815260056020526040902061070782610a7c565b60028201556008546003909101555b600061072133610a7c565b33600081815260056020526040808220600201919091556004805491516340c10f1960e01b815290810192909252602482018390529192506001600160a01b03909116906340c10f1990604401600060405180830381600087803b15801561078857600080fd5b505af115801561079c573d6000803e3d6000fd5b505060408051338152602081018590527fe2403640ba68fed3a2f88b7557551d1993f84b99bb10ff833f0cf8db0c5e0486935001905060405180910390a150506001600055565b7f82db594318110a04b6349ce48645aa69f0892751bc893d15e61d9e2b9c4630f561080d81610ae1565b610815610c65565b50565b600061036982610a7c565b7f82db594318110a04b6349ce48645aa69f0892751bc893d15e61d9e2b9c4630f561084d81610ae1565b610815610cb7565b6002600054036108a75760405162461bcd60e51b815260206004820152601f60248201527f5265656e7472616e637947756172643a207265656e7472616e742063616c6c0060448201526064016103bd565b60026000556108b4610c10565b336108bd610a1e565b600855426007556001600160a01b03811615610903576001600160a01b03811660009081526005602052604090206108f482610a7c565b60028201556008546003909101555b336000908152600560205260408120805490918491839190610926908490611062565b909155505042600182015560068054849190600090610946908490611062565b90915550506003546040516323b872dd60e01b8152336004820152306024820152604481018590526001600160a01b03909116906323b872dd906064016020604051808303816000875af11580156109a2573d6000803e3d6000fd5b505050506040513d601f19601f820116820180604052508101906109c69190611040565b5060405183815233907f9e71bc8eea02a63969f509818f2dafb9254532904319f9dbda79b67bd34a5f3d906020016105a0565b600082815260026020526040902060010154610a1481610ae1565b6105d78383610b8d565b6000600654600003610a31575060085490565b600654600954600754610a449042611029565b610a4e919061107a565b610a6090670de0b6b3a764000061107a565b610a6a9190611099565b600854610a779190611062565b905090565b6001600160a01b038116600090815260056020526040812060028101546003820154670de0b6b3a764000090610ab0610a1e565b610aba9190611029565b8354610ac6919061107a565b610ad09190611099565b610ada9190611062565b9392505050565b6108158133610cf2565b60008281526002602090815260408083206001600160a01b038516845290915290205460ff166106645760008281526002602090815260408083206001600160a01b03851684529091529020805460ff19166001179055610b493390565b6001600160a01b0316816001600160a01b0316837f2f8788117e7eff1d82e926ec794901d17c78024a50270940304540a733656f0d60405160405180910390a45050565b60008281526002602090815260408083206001600160a01b038516845290915290205460ff16156106645760008281526002602090815260408083206001600160a01b0385168085529252808320805460ff1916905551339285917ff6391f5c32d9c69d2a47ea670b442974b53935d1edc7fd64eb21e047a839171b9190a45050565b60015460ff1615610c635760405162461bcd60e51b815260206004820152601060248201527f5061757361626c653a207061757365640000000000000000000000000000000060448201526064016103bd565b565b610c6d610d72565b6001805460ff191690557f5db9ee0a495bf2e6ff9c91a7834c1ba4fdd244a5e8aa4e537bd38aeae4b073aa335b6040516001600160a01b03909116815260200160405180910390a1565b610cbf610c10565b6001805460ff1916811790557f62e78cea01bee320cd4e420270b5ea74000d11b0c9f74754ebdbfc544b05a25833610c9a565b60008281526002602090815260408083206001600160a01b038516845290915290205460ff1661066457610d30816001600160a01b03166014610dc4565b610d3b836020610dc4565b604051602001610d4c9291906110eb565b60408051601f198184030181529082905262461bcd60e51b82526103bd9160040161116c565b60015460ff16610c635760405162461bcd60e51b815260206004820152601460248201527f5061757361626c653a206e6f742070617573656400000000000000000000000060448201526064016103bd565b60606000610dd383600261107a565b610dde906002611062565b67ffffffffffffffff811115610df657610df661119f565b6040519080825280601f01601f191660200182016040528015610e20576020820181803683370190505b509050600360fc1b81600081518110610e3b57610e3b6111b5565b60200101906001600160f81b031916908160001a905350600f60fb1b81600181518110610e6a57610e6a6111b5565b60200101906001600160f81b031916908160001a9053506000610e8e84600261107a565b610e99906001611062565b90505b6001811115610f1e577f303132333435363738396162636465660000000000000000000000000000000085600f1660108110610eda57610eda6111b5565b1a60f81b828281518110610ef057610ef06111b5565b60200101906001600160f81b031916908160001a90535060049490941c93610f17816111cb565b9050610e9c565b508315610ada5760405162461bcd60e51b815260206004820181905260248201527f537472696e67733a20686578206c656e67746820696e73756666696369656e7460448201526064016103bd565b600060208284031215610f7f57600080fd5b81356001600160e01b031981168114610ada57600080fd5b600060208284031215610fa957600080fd5b5035919050565b80356001600160a01b0381168114610fc757600080fd5b919050565b60008060408385031215610fdf57600080fd5b82359150610fef60208401610fb0565b90509250929050565b60006020828403121561100a57600080fd5b610ada82610fb0565b634e487b7160e01b600052601160045260246000fd5b60008282101561103b5761103b611013565b500390565b60006020828403121561105257600080fd5b81518015158114610ada57600080fd5b6000821982111561107557611075611013565b500190565b600081600019048311821515161561109457611094611013565b500290565b6000826110b657634e487b7160e01b600052601260045260246000fd5b500490565b60005b838110156110d65781810151838201526020016110be565b838111156110e5576000848401525b50505050565b7f416363657373436f6e74726f6c3a206163636f756e74200000000000000000008152600083516111238160178501602088016110bb565b7f206973206d697373696e6720726f6c652000000000000000000000000000000060179184019182015283516111608160288401602088016110bb565b01602801949350505050565b602081526000825180602084015261118b8160408501602087016110bb565b601f01601f19169190910160400192915050565b634e487b7160e01b600052604160045260246000fd5b634e487b7160e01b600052603260045260246000fd5b6000816111da576111da611013565b50600019019056fea164736f6c634300080d000a60806040523480156200001157600080fd5b5060405162001103380380620011038339810160408190526200003491620002bc565b60405180604001604052806008815260200167135bd8dad4985a5960c21b8152506040518060400160405280600381526020016213549160ea1b81525081600390805190602001906200008992919062000216565b5080516200009f90600490602084019062000216565b505050620000bc620000b6620000df60201b60201c565b620000e3565b6001600160a01b0381163314620000d857620000d88162000135565b506200032a565b3390565b600580546001600160a01b038381166001600160a01b0319831681179093556040519116919082907f8be0079c531659141344cd1fd0a4f28419497f9722a3daafe3b4186f6b6457e090600090a35050565b6200013f620001b8565b6001600160a01b038116620001aa5760405162461bcd60e51b815260206004820152602660248201527f4f776e61626c653a206e6577206f776e657220697320746865207a65726f206160448201526564647265737360d01b60648201526084015b60405180910390fd5b620001b581620000e3565b50565b6005546001600160a01b03163314620002145760405162461bcd60e51b815260206004820181905260248201527f4f776e61626c653a2063616c6c6572206973206e6f7420746865206f776e65726044820152606401620001a1565b565b8280546200022490620002ee565b90600052602060002090601f01602090048101928262000248576000855562000293565b82601f106200026357805160ff191683800117855562000293565b8280016001018555821562000293579182015b828111156200029357825182559160200191906001019062000276565b50620002a1929150620002a5565b5090565b5b80821115620002a15760008155600101620002a6565b600060208284031215620002cf57600080fd5b81516001600160a01b0381168114620002e757600080fd5b9392505050565b600181811c908216806200030357607f821691505b6020821081036200032457634e487b7160e01b600052602260045260246000fd5b50919050565b610dc9806200033a6000396000f3fe608060405234801561001057600080fd5b506004361061011b5760003560e01c806370a08231116100b257806395d89b4111610081578063a9059cbb11610066578063a9059cbb1461024a578063dd62ed3e1461025d578063f2fde38b1461029657600080fd5b806395d89b411461022f578063a457c2d71461023757600080fd5b806370a08231146101d0578063715018a6146101f957806379cc6790146102015780638da5cb5b1461021457600080fd5b8063313ce567116100ee578063313ce56714610186578063395093511461019557806340c10f19146101a857806342966c68146101bd57600080fd5b806306fdde0314610120578063095ea7b31461013e57806318160ddd1461016157806323b872dd14610173575b600080fd5b6101286102a9565b6040516101359190610bf8565b60405180910390f35b61015161014c366004610c69565b61033b565b6040519015158152602001610135565b6002545b604051908152602001610135565b610151610181366004610c93565b610353565b60405160128152602001610135565b6101516101a3366004610c69565b610377565b6101bb6101b6366004610c69565b6103b6565b005b6101bb6101cb366004610ccf565b6103cc565b6101656101de366004610ce8565b6001600160a01b031660009081526020819052604090205490565b6101bb6103d9565b6101bb61020f366004610c69565b6103ed565b6005546040516001600160a01b039091168152602001610135565b610128610402565b610151610245366004610c69565b610411565b610151610258366004610c69565b6104c0565b61016561026b366004610d0a565b6001600160a01b03918216600090815260016020908152604080832093909416825291909152205490565b6101bb6102a4366004610ce8565b6104ce565b6060600380546102b890610d3d565b80601f01602080910402602001604051908101604052809291908181526020018280546102e490610d3d565b80156103315780601f1061030657610100808354040283529160200191610331565b820191906000526020600020905b81548152906001019060200180831161031457829003601f168201915b5050505050905090565b60003361034981858561055b565b5060019392505050565b600033610361858285610680565b61036c858585610712565b506001949350505050565b3360008181526001602090815260408083206001600160a01b038716845290915281205490919061034990829086906103b1908790610d8d565b61055b565b6103be61090f565b6103c88282610969565b5050565b6103d63382610a48565b50565b6103e161090f565b6103eb6000610b8e565b565b6103f8823383610680565b6103c88282610a48565b6060600480546102b890610d3d565b3360008181526001602090815260408083206001600160a01b0387168452909152812054909190838110156104b35760405162461bcd60e51b815260206004820152602560248201527f45524332303a2064656372656173656420616c6c6f77616e63652062656c6f7760448201527f207a65726f00000000000000000000000000000000000000000000000000000060648201526084015b60405180910390fd5b61036c828686840361055b565b600033610349818585610712565b6104d661090f565b6001600160a01b0381166105525760405162461bcd60e51b815260206004820152602660248201527f4f776e61626c653a206e6577206f776e657220697320746865207a65726f206160448201527f646472657373000000000000000000000000000000000000000000000000000060648201526084016104aa565b6103d681610b8e565b6001600160a01b0383166105bd5760405162461bcd60e51b8152602060048201526024808201527f45524332303a20617070726f76652066726f6d20746865207a65726f206164646044820152637265737360e01b60648201526084016104aa565b6001600160a01b03821661061e5760405162461bcd60e51b815260206004820152602260248201527f45524332303a20617070726f766520746f20746865207a65726f206164647265604482015261737360f01b60648201526084016104aa565b6001600160a01b0383811660008181526001602090815260408083209487168084529482529182902085905590518481527f8c5be1e5ebec7d5bd14f71427d1e84f3dd0314c0f7b2291e5b200ac8c7c3b92591015b60405180910390a3505050565b6001600160a01b03838116600090815260016020908152604080832093861683529290522054600019811461070c57818110156106ff5760405162461bcd60e51b815260206004820152601d60248201527f45524332303a20696e73756666696369656e7420616c6c6f77616e636500000060448201526064016104aa565b61070c848484840361055b565b50505050565b6001600160a01b03831661078e5760405162461bcd60e51b815260206004820152602560248201527f45524332303a207472616e736665722066726f6d20746865207a65726f20616460448201527f647265737300000000000000000000000000000000000000000000000000000060648201526084016104aa565b6001600160a01b0382166107f05760405162461bcd60e51b815260206004820152602360248201527f45524332303a207472616e7366657220746f20746865207a65726f206164647260448201526265737360e81b60648201526084016104aa565b6001600160a01b0383166000908152602081905260409020548181101561087f5760405162461bcd60e51b815260206004820152602660248201527f45524332303a207472616e7366657220616d6f756e742065786365656473206260448201527f616c616e6365000000000000000000000000000000000000000000000000000060648201526084016104aa565b6001600160a01b038085166000908152602081905260408082208585039055918516815290812080548492906108b6908490610d8d565b92505081905550826001600160a01b0316846001600160a01b03167fddf252ad1be2c89b69c2b068fc378daa952ba7f163c4a11628f55a4df523b3ef8460405161090291815260200190565b60405180910390a361070c565b6005546001600160a01b031633146103eb5760405162461bcd60e51b815260206004820181905260248201527f4f776e61626c653a2063616c6c6572206973206e6f7420746865206f776e657260448201526064016104aa565b6001600160a01b0382166109bf5760405162461bcd60e51b815260206004820152601f60248201527f45524332303a206d696e7420746f20746865207a65726f20616464726573730060448201526064016104aa565b80600260008282546109d19190610d8d565b90915550506001600160a01b038216600090815260208190526040812080548392906109fe908490610d8d565b90915550506040518181526001600160a01b038316906000907fddf252ad1be2c89b69c2b068fc378daa952ba7f163c4a11628f55a4df523b3ef9060200160405180910390a35050565b6001600160a01b038216610aa85760405162461bcd60e51b815260206004820152602160248201527f45524332303a206275726e2066726f6d20746865207a65726f206164647265736044820152607360f81b60648201526084016104aa565b6001600160a01b03821660009081526020819052604090205481811015610b1c5760405162461bcd60e51b815260206004820152602260248201527f45524332303a206275726e20616d6f756e7420657863656564732062616c616e604482015261636560f01b60648201526084016104aa565b6001600160a01b0383166000908152602081905260408120838303905560028054849290610b4b908490610da5565b90915550506040518281526000906001600160a01b038516907fddf252ad1be2c89b69c2b068fc378daa952ba7f163c4a11628f55a4df523b3ef90602001610673565b600580546001600160a01b038381167fffffffffffffffffffffffff0000000000000000000000000000000000000000831681179093556040519116919082907f8be0079c531659141344cd1fd0a4f28419497f9722a3daafe3b4186f6b6457e090600090a35050565b600060208083528351808285015260005b81811015610c2557858101830151858201604001528201610c09565b81811115610c37576000604083870101525b50601f01601f1916929092016040019392505050565b80356001600160a01b0381168114610c6457600080fd5b919050565b60008060408385031215610c7c57600080fd5b610c8583610c4d565b946020939093013593505050565b600080600060608486031215610ca857600080fd5b610cb184610c4d565b9250610cbf60208501610c4d565b9150604084013590509250925092565b600060208284031215610ce157600080fd5b5035919050565b600060208284031215610cfa57600080fd5b610d0382610c4d565b9392505050565b60008060408385031215610d1d57600080fd5b610d2683610c4d565b9150610d3460208401610c4d565b90509250929050565b600181811c90821680610d5157607f821691505b602082108103610d7157634e487b7160e01b600052602260045260246000fd5b50919050565b634e487b7160e01b600052601160045260246000fd5b60008219821115610da057610da0610d77565b500190565b600082821015610db757610db7610d77565b50039056fea164736f6c634300080d000a",
  "devdoc": {
    "author": "bitbeckers",
    "custom:source": "This is an example contract.",
    "kind": "dev",
    "methods": {
      "getRoleAdmin(bytes32)": {
        "details": "Returns the admin role that controls `role`. See {grantRole} and {revokeRole}. To change a role's admin, use {_setRoleAdmin}."
      },
      "grantRole(bytes32,address)": {
        "details": "Grants `role` to `account`. If `account` had not been already granted `role`, emits a {RoleGranted} event. Requirements: - the caller must have ``role``'s admin role. May emit a {RoleGranted} event."
      },
      "hasRole(bytes32,address)": {
        "details": "Returns `true` if `account` has been granted `role`."
      },
      "paused()": {
        "details": "Returns true if the contract is paused, and false otherwise."
      },
      "renounceRole(bytes32,address)": {
        "details": "Revokes `role` from the calling account. Roles are often managed via {grantRole} and {revokeRole}: this function's purpose is to provide a mechanism for accounts to lose their privileges if they are compromised (such as when a trusted device is misplaced). If the calling account had been revoked `role`, emits a {RoleRevoked} event. Requirements: - the caller must be `account`. May emit a {RoleRevoked} event."
      },
      "revokeRole(bytes32,address)": {
        "details": "Revokes `role` from `account`. If `account` had been granted `role`, emits a {RoleRevoked} event. Requirements: - the caller must have ``role``'s admin role. May emit a {RoleRevoked} event."
      },
      "supportsInterface(bytes4)": {
        "details": "See {IERC165-supportsInterface}."
      }
    },
    "title": "Calculates and pays out staking rewards",
    "version": 1
  },
  "userdoc": {
    "kind": "user",
    "methods": {},
    "version": 1
  },
  "storageLayout": {
    "storage": [
      {
        "astId": 624,
        "contract": "contracts/Staking_Pool.sol:Staking_Pool",
        "label": "_status",
        "offset": 0,
        "slot": "0",
        "type": "t_uint256"
      },
      {
        "astId": 523,
        "contract": "contracts/Staking_Pool.sol:Staking_Pool",
        "label": "_paused",
        "offset": 0,
        "slot": "1",
        "type": "t_bool"
      },
      {
        "astId": 24,
        "contract": "contracts/Staking_Pool.sol:Staking_Pool",
        "label": "_roles",
        "offset": 0,
        "slot": "2",
        "type": "t_mapping(t_bytes32,t_struct(RoleData)19_storage)"
      },
      {
        "astId": 3296,
        "contract": "contracts/Staking_Pool.sol:Staking_Pool",
        "label": "_stakeToken",
        "offset": 0,
        "slot": "3",
        "type": "t_address"
      },
      {
        "astId": 3298,
        "contract": "contracts/Staking_Pool.sol:Staking_Pool",
        "label": "_rewardToken",
        "offset": 0,
        "slot": "4",
        "type": "t_address"
      },
      {
        "astId": 3303,
        "contract": "contracts/Staking_Pool.sol:Staking_Pool",
        "label": "_stakes",
        "offset": 0,
        "slot": "5",
        "type": "t_mapping(t_address,t_struct(Stake)3323_storage)"
      },
      {
        "astId": 3305,
        "contract": "contracts/Staking_Pool.sol:Staking_Pool",
        "label": "_totalStaked",
        "offset": 0,
        "slot": "6",
        "type": "t_uint256"
      },
      {
        "astId": 3307,
        "contract": "contracts/Staking_Pool.sol:Staking_Pool",
        "label": "_lastUpdateTime",
        "offset": 0,
        "slot": "7",
        "type": "t_uint256"
      },
      {
        "astId": 3309,
        "contract": "contracts/Staking_Pool.sol:Staking_Pool",
        "label": "_rewardPerTokenStored",
        "offset": 0,
        "slot": "8",
        "type": "t_uint256"
      },
      {
        "astId": 3314,
        "contract": "contracts/Staking_Pool.sol:Staking_Pool",
        "label": "_rewardRate",
        "offset": 0,
        "slot": "9",
        "type": "t_uint256"
      }
    ],
    "types": {
      "t_address": {
        "encoding": "inplace",
        "label": "address",
        "numberOfBytes": "20"
      },
      "t_bool": {
        "encoding": "inplace",
        "label": "bool",
        "numberOfBytes": "1"
      },
      "t_bytes32": {
        "encoding": "inplace",
        "label": "bytes32",
        "numberOfBytes": "32"
      },
      "t_mapping(t_address,t_bool)": {
        "encoding": "mapping",
        "key": "t_address",
        "label": "mapping(address => bool)",
        "numberOfBytes": "32",
        "value": "t_bool"
      },
      "t_mapping(t_address,t_struct(Stake)3323_storage)": {
        "encoding": "mapping",
        "key": "t_address",
        "label": "mapping(address => struct Staking_Pool.Stake)",
        "numberOfBytes": "32",
        "value": "t_struct(Stake)3323_storage"
      },
      "t_mapping(t_bytes32,t_struct(RoleData)19_storage)": {
        "encoding": "mapping",
        "key": "t_bytes32",
        "label": "mapping(bytes32 => struct AccessControl.RoleData)",
        "numberOfBytes": "32",
        "value": "t_struct(RoleData)19_storage"
      },
      "t_struct(RoleData)19_storage": {
        "encoding": "inplace",
        "label": "struct AccessControl.RoleData",
        "members": [
          {
            "astId": 16,
            "contract": "contracts/Staking_Pool.sol:Staking_Pool",
            "label": "members",
            "offset": 0,
            "slot": "0",
            "type": "t_mapping(t_address,t_bool)"
          },
          {
            "astId": 18,
            "contract": "contracts/Staking_Pool.sol:Staking_Pool",
            "label": "adminRole",
            "offset": 0,
            "slot": "1",
            "type": "t_bytes32"
          }
        ],
        "numberOfBytes": "64"
      },
      "t_struct(Stake)3323_storage": {
        "encoding": "inplace",
        "label": "struct Staking_Pool.Stake",
        "members": [
          {
            "astId": 3316,
            "contract": "contracts/Staking_Pool.sol:Staking_Pool",
            "label": "balance",
            "offset": 0,
            "slot": "0",
            "type": "t_uint256"
          },
          {
            "astId": 3318,
            "contract": "contracts/Staking_Pool.sol:Staking_Pool",
            "label": "timestamp",
            "offset": 0,
            "slot": "1",
            "type": "t_uint256"
          },
          {
            "astId": 3320,
            "contract": "contracts/Staking_Pool.sol:Staking_Pool",
            "label": "rewards",
            "offset": 0,
            "slot": "2",
            "type": "t_uint256"
          },
          {
            "astId": 3322,
            "contract": "contracts/Staking_Pool.sol:Staking_Pool",
            "label": "userRewardPerTokenPaid",
            "offset": 0,
            "slot": "3",
            "type": "t_uint256"
          }
        ],
        "numberOfBytes": "128"
      },
      "t_uint256": {
        "encoding": "inplace",
        "label": "uint256",
        "numberOfBytes": "32"
      }
    }
  }
}