{
  "address": "0x7aD687E55BF184c4cF983269cc13aAA442fF6904",
  "abi": [
    {
      "inputs": [
        {
          "internalType": "address",
          "name": "_owner",
          "type": "address"
        },
        {
          "internalType": "address",
          "name": "_stakeTokenAddress",
          "type": "address"
        }
      ],
      "stateMutability": "nonpayable",
      "type": "constructor"
    },
    {
      "anonymous": false,
      "inputs": [
        {
          "indexed": false,
          "internalType": "uint256",
          "name": "added",
          "type": "uint256"
        },
        {
          "indexed": false,
          "internalType": "uint256",
          "name": "totalSupply",
          "type": "uint256"
        }
      ],
      "name": "AvailableRewardsUpdated",
      "type": "event"
    },
    {
      "anonymous": false,
      "inputs": [
        {
          "indexed": false,
          "internalType": "address",
          "name": "account",
          "type": "address"
        }
      ],
      "name": "Paused",
      "type": "event"
    },
    {
      "anonymous": false,
      "inputs": [
        {
          "indexed": false,
          "internalType": "address",
          "name": "token",
          "type": "address"
        },
        {
          "indexed": false,
          "internalType": "uint256",
          "name": "amount",
          "type": "uint256"
        }
      ],
      "name": "Recovered",
      "type": "event"
    },
    {
      "anonymous": false,
      "inputs": [
        {
          "indexed": false,
          "internalType": "address",
          "name": "account",
          "type": "address"
        },
        {
          "indexed": false,
          "internalType": "uint256",
          "name": "amount",
          "type": "uint256"
        }
      ],
      "name": "RewardPaid",
      "type": "event"
    },
    {
      "anonymous": false,
      "inputs": [
        {
          "indexed": true,
          "internalType": "bytes32",
          "name": "role",
          "type": "bytes32"
        },
        {
          "indexed": true,
          "internalType": "bytes32",
          "name": "previousAdminRole",
          "type": "bytes32"
        },
        {
          "indexed": true,
          "internalType": "bytes32",
          "name": "newAdminRole",
          "type": "bytes32"
        }
      ],
      "name": "RoleAdminChanged",
      "type": "event"
    },
    {
      "anonymous": false,
      "inputs": [
        {
          "indexed": true,
          "internalType": "bytes32",
          "name": "role",
          "type": "bytes32"
        },
        {
          "indexed": true,
          "internalType": "address",
          "name": "account",
          "type": "address"
        },
        {
          "indexed": true,
          "internalType": "address",
          "name": "sender",
          "type": "address"
        }
      ],
      "name": "RoleGranted",
      "type": "event"
    },
    {
      "anonymous": false,
      "inputs": [
        {
          "indexed": true,
          "internalType": "bytes32",
          "name": "role",
          "type": "bytes32"
        },
        {
          "indexed": true,
          "internalType": "address",
          "name": "account",
          "type": "address"
        },
        {
          "indexed": true,
          "internalType": "address",
          "name": "sender",
          "type": "address"
        }
      ],
      "name": "RoleRevoked",
      "type": "event"
    },
    {
      "anonymous": false,
      "inputs": [
        {
          "indexed": true,
          "internalType": "address",
          "name": "user",
          "type": "address"
        },
        {
          "indexed": false,
          "internalType": "uint256",
          "name": "amount",
          "type": "uint256"
        }
      ],
      "name": "Staked",
      "type": "event"
    },
    {
      "anonymous": false,
      "inputs": [
        {
          "indexed": false,
          "internalType": "address",
          "name": "account",
          "type": "address"
        }
      ],
      "name": "Unpaused",
      "type": "event"
    },
    {
      "anonymous": false,
      "inputs": [
        {
          "indexed": true,
          "internalType": "address",
          "name": "user",
          "type": "address"
        },
        {
          "indexed": false,
          "internalType": "uint256",
          "name": "amount",
          "type": "uint256"
        }
      ],
      "name": "Withdrawn",
      "type": "event"
    },
    {
      "inputs": [],
      "name": "CONFIG_ROLE",
      "outputs": [
        {
          "internalType": "bytes32",
          "name": "",
          "type": "bytes32"
        }
      ],
      "stateMutability": "view",
      "type": "function"
    },
    {
      "inputs": [],
      "name": "DEFAULT_ADMIN_ROLE",
      "outputs": [
        {
          "internalType": "bytes32",
          "name": "",
          "type": "bytes32"
        }
      ],
      "stateMutability": "view",
      "type": "function"
    },
    {
      "inputs": [],
      "name": "claimRewards",
      "outputs": [],
      "stateMutability": "nonpayable",
      "type": "function"
    },
    {
      "inputs": [
        {
          "internalType": "bytes32",
          "name": "role",
          "type": "bytes32"
        }
      ],
      "name": "getRoleAdmin",
      "outputs": [
        {
          "internalType": "bytes32",
          "name": "",
          "type": "bytes32"
        }
      ],
      "stateMutability": "view",
      "type": "function"
    },
    {
      "inputs": [
        {
          "internalType": "address",
          "name": "user",
          "type": "address"
        }
      ],
      "name": "getStakedBalance",
      "outputs": [
        {
          "internalType": "uint256",
          "name": "stakedBalance",
          "type": "uint256"
        }
      ],
      "stateMutability": "view",
      "type": "function"
    },
    {
      "inputs": [
        {
          "internalType": "address",
          "name": "user",
          "type": "address"
        }
      ],
      "name": "getStakingReward",
      "outputs": [
        {
          "internalType": "uint256",
          "name": "rewardAmount",
          "type": "uint256"
        }
      ],
      "stateMutability": "view",
      "type": "function"
    },
    {
      "inputs": [
        {
          "internalType": "bytes32",
          "name": "role",
          "type": "bytes32"
        },
        {
          "internalType": "address",
          "name": "account",
          "type": "address"
        }
      ],
      "name": "grantRole",
      "outputs": [],
      "stateMutability": "nonpayable",
      "type": "function"
    },
    {
      "inputs": [
        {
          "internalType": "bytes32",
          "name": "role",
          "type": "bytes32"
        },
        {
          "internalType": "address",
          "name": "account",
          "type": "address"
        }
      ],
      "name": "hasRole",
      "outputs": [
        {
          "internalType": "bool",
          "name": "",
          "type": "bool"
        }
      ],
      "stateMutability": "view",
      "type": "function"
    },
    {
      "inputs": [],
      "name": "pause",
      "outputs": [],
      "stateMutability": "nonpayable",
      "type": "function"
    },
    {
      "inputs": [],
      "name": "paused",
      "outputs": [
        {
          "internalType": "bool",
          "name": "",
          "type": "bool"
        }
      ],
      "stateMutability": "view",
      "type": "function"
    },
    {
      "inputs": [
        {
          "internalType": "bytes32",
          "name": "role",
          "type": "bytes32"
        },
        {
          "internalType": "address",
          "name": "account",
          "type": "address"
        }
      ],
      "name": "renounceRole",
      "outputs": [],
      "stateMutability": "nonpayable",
      "type": "function"
    },
    {
      "inputs": [
        {
          "internalType": "bytes32",
          "name": "role",
          "type": "bytes32"
        },
        {
          "internalType": "address",
          "name": "account",
          "type": "address"
        }
      ],
      "name": "revokeRole",
      "outputs": [],
      "stateMutability": "nonpayable",
      "type": "function"
    },
    {
      "inputs": [],
      "name": "rewardRate",
      "outputs": [
        {
          "internalType": "uint256",
          "name": "",
          "type": "uint256"
        }
      ],
      "stateMutability": "view",
      "type": "function"
    },
    {
      "inputs": [],
      "name": "rewardToken",
      "outputs": [
        {
          "internalType": "address",
          "name": "",
          "type": "address"
        }
      ],
      "stateMutability": "view",
      "type": "function"
    },
    {
      "inputs": [
        {
          "internalType": "uint256",
          "name": "amount",
          "type": "uint256"
        }
      ],
      "name": "stake",
      "outputs": [],
      "stateMutability": "nonpayable",
      "type": "function"
    },
    {
      "inputs": [],
      "name": "stakeToken",
      "outputs": [
        {
          "internalType": "address",
          "name": "",
          "type": "address"
        }
      ],
      "stateMutability": "view",
      "type": "function"
    },
    {
      "inputs": [
        {
          "internalType": "bytes4",
          "name": "interfaceId",
          "type": "bytes4"
        }
      ],
      "name": "supportsInterface",
      "outputs": [
        {
          "internalType": "bool",
          "name": "",
          "type": "bool"
        }
      ],
      "stateMutability": "view",
      "type": "function"
    },
    {
      "inputs": [],
      "name": "totalStaked",
      "outputs": [
        {
          "internalType": "uint256",
          "name": "amount",
          "type": "uint256"
        }
      ],
      "stateMutability": "view",
      "type": "function"
    },
    {
      "inputs": [],
      "name": "unpause",
      "outputs": [],
      "stateMutability": "nonpayable",
      "type": "function"
    },
    {
      "inputs": [
        {
          "internalType": "uint256",
          "name": "amount",
          "type": "uint256"
        }
      ],
      "name": "withdraw",
      "outputs": [],
      "stateMutability": "nonpayable",
      "type": "function"
    }
  ],
  "transactionHash": "0x94253f45527f205bcc875629a69442369bb9479bb3656077e301c2d6ba14fe1d",
  "args": [
    "0x23314160c752D6Bb544661DcE13d01C21c64331E",
    "0x330FDb470572c3E3599607332f296F88D4FCd546"
  ],
  "numDeployments": 1,
  "solcInputHash": "fd488411fe6ba25288a40e713c959607",
  "bytecode": "0x6080604052670de0b6b3a76400006009553480156200001d57600080fd5b5060405162002600380380620026008339810160408190526200004091620001d9565b60016000819055805460ff19169055600380546001600160a01b0319166001600160a01b03831617905560405130906200007a90620001ae565b6001600160a01b039091168152602001604051809103906000f080158015620000a7573d6000803e3d6000fd5b50600480546001600160a01b0319166001600160a01b0392909216919091179055620000d560008362000109565b620001017f82db594318110a04b6349ce48645aa69f0892751bc893d15e61d9e2b9c4630f58362000109565b505062000211565b60008281526002602090815260408083206001600160a01b038516845290915290205460ff16620001aa5760008281526002602090815260408083206001600160a01b03851684529091529020805460ff19166001179055620001693390565b6001600160a01b0316816001600160a01b0316837f2f8788117e7eff1d82e926ec794901d17c78024a50270940304540a733656f0d60405160405180910390a45b5050565b611193806200146d83390190565b80516001600160a01b0381168114620001d457600080fd5b919050565b60008060408385031215620001ed57600080fd5b620001f883620001bc565b91506200020860208401620001bc565b90509250929050565b61124c80620002216000396000f3fe608060405234801561001057600080fd5b506004361061016c5760003560e01c806378f4d413116100cd578063a217fddf11610081578063a694fc3a11610066578063a694fc3a14610301578063d547741f14610314578063f7c618c11461032757600080fd5b8063a217fddf146102d2578063a4d19feb146102da57600080fd5b8063817b1cd2116100b2578063817b1cd2146102895780638456cb591461029157806391d148541461029957600080fd5b806378f4d4131461026e5780637b0a47ee1461028157600080fd5b8063372500ab116101245780633f4ba83a116101095780633f4ba83a1461023657806351ed6a301461023e5780635c975abb1461026357600080fd5b8063372500ab146102055780633a02a42d1461020d57600080fd5b80632e1a7d4d116101555780632e1a7d4d146101ca5780632f2ff15d146101df57806336568abe146101f257600080fd5b806301ffc9a714610171578063248a9ca314610199575b600080fd5b61018461017f366004610fca565b610338565b60405190151581526020015b60405180910390f35b6101bc6101a7366004610ff4565b60009081526002602052604090206001015490565b604051908152602001610190565b6101dd6101d8366004610ff4565b61036f565b005b6101dd6101ed366004611029565b6105b2565b6101dd610200366004611029565b6105dc565b6101dd610668565b6101bc61021b366004611055565b6001600160a01b031660009081526005602052604090205490565b6101dd610821565b6003546001600160a01b03165b6040516001600160a01b039091168152602001610190565b60015460ff16610184565b6101bc61027c366004611055565b610856565b6009546101bc565b6006546101bc565b6101dd610861565b6101846102a7366004611029565b60009182526002602090815260408084206001600160a01b0393909316845291905290205460ff1690565b6101bc600081565b6101bc7f82db594318110a04b6349ce48645aa69f0892751bc893d15e61d9e2b9c4630f581565b6101dd61030f366004610ff4565b610893565b6101dd610322366004611029565b610a75565b6004546001600160a01b031661024b565b60006001600160e01b03198216637965db0b60e01b148061036957506301ffc9a760e01b6001600160e01b03198316145b92915050565b6002600054036103c65760405162461bcd60e51b815260206004820152601f60248201527f5265656e7472616e637947756172643a207265656e7472616e742063616c6c0060448201526064015b60405180910390fd5b6002600055336103d4610a9a565b600855426007556001600160a01b0381161561041a576001600160a01b038116600090815260056020526040902061040b82610af8565b60028201556008546003909101555b6000821161046a5760405162461bcd60e51b815260206004820152601160248201527f43616e6e6f74207769746864726177203000000000000000000000000000000060448201526064016103bd565b33600090815260056020526040902080548311156104ca5760405162461bcd60e51b815260206004820181905260248201527f43616e6e6f74207769746864726177206d6f7265207468616e207374616b656460448201526064016103bd565b828160000160008282546104de9190611086565b9250508190555082600660008282546104f79190611086565b909155505060035460405163a9059cbb60e01b8152336004820152602481018590526001600160a01b039091169063a9059cbb906044016020604051808303816000875af115801561054d573d6000803e3d6000fd5b505050506040513d601f19601f82011682018060405250810190610571919061109d565b5060405183815233907f7084f5476618d8e60b11ef0d7d3f06914655adb8793e28ff7f018d4c76d505d5906020015b60405180910390a25050600160005550565b6000828152600260205260409020600101546105cd81610b5d565b6105d78383610b67565b505050565b6001600160a01b038116331461065a5760405162461bcd60e51b815260206004820152602f60248201527f416363657373436f6e74726f6c3a2063616e206f6e6c792072656e6f756e636560448201527f20726f6c657320666f722073656c66000000000000000000000000000000000060648201526084016103bd565b6106648282610c09565b5050565b6002600054036106ba5760405162461bcd60e51b815260206004820152601f60248201527f5265656e7472616e637947756172643a207265656e7472616e742063616c6c0060448201526064016103bd565b600260005560015460ff16156107055760405162461bcd60e51b815260206004820152601060248201526f14185d5cd8589b194e881c185d5cd95960821b60448201526064016103bd565b3361070e610a9a565b600855426007556001600160a01b03811615610754576001600160a01b038116600090815260056020526040902061074582610af8565b60028201556008546003909101555b600061075f33610af8565b33600081815260056020526040808220600201919091556004805491516340c10f1960e01b815290810192909252602482018390529192506001600160a01b03909116906340c10f1990604401600060405180830381600087803b1580156107c657600080fd5b505af11580156107da573d6000803e3d6000fd5b505060408051338152602081018590527fe2403640ba68fed3a2f88b7557551d1993f84b99bb10ff833f0cf8db0c5e0486935001905060405180910390a150506001600055565b7f82db594318110a04b6349ce48645aa69f0892751bc893d15e61d9e2b9c4630f561084b81610b5d565b610853610c8c565b50565b600061036982610af8565b7f82db594318110a04b6349ce48645aa69f0892751bc893d15e61d9e2b9c4630f561088b81610b5d565b610853610d28565b6002600054036108e55760405162461bcd60e51b815260206004820152601f60248201527f5265656e7472616e637947756172643a207265656e7472616e742063616c6c0060448201526064016103bd565b600260005560015460ff16156109305760405162461bcd60e51b815260206004820152601060248201526f14185d5cd8589b194e881c185d5cd95960821b60448201526064016103bd565b33610939610a9a565b600855426007556001600160a01b0381161561097f576001600160a01b038116600090815260056020526040902061097082610af8565b60028201556008546003909101555b3360009081526005602052604081208054909184918391906109a29084906110bf565b9091555050426001820155600680548491906000906109c29084906110bf565b90915550506003546040516323b872dd60e01b8152336004820152306024820152604481018590526001600160a01b03909116906323b872dd906064016020604051808303816000875af1158015610a1e573d6000803e3d6000fd5b505050506040513d601f19601f82011682018060405250810190610a42919061109d565b5060405183815233907f9e71bc8eea02a63969f509818f2dafb9254532904319f9dbda79b67bd34a5f3d906020016105a0565b600082815260026020526040902060010154610a9081610b5d565b6105d78383610c09565b6000600654600003610aad575060085490565b600654600954600754610ac09042611086565b610aca91906110d7565b610adc90670de0b6b3a76400006110d7565b610ae691906110f6565b600854610af391906110bf565b905090565b6001600160a01b038116600090815260056020526040812060028101546003820154670de0b6b3a764000090610b2c610a9a565b610b369190611086565b8354610b4291906110d7565b610b4c91906110f6565b610b5691906110bf565b9392505050565b6108538133610da1565b60008281526002602090815260408083206001600160a01b038516845290915290205460ff166106645760008281526002602090815260408083206001600160a01b03851684529091529020805460ff19166001179055610bc53390565b6001600160a01b0316816001600160a01b0316837f2f8788117e7eff1d82e926ec794901d17c78024a50270940304540a733656f0d60405160405180910390a45050565b60008281526002602090815260408083206001600160a01b038516845290915290205460ff16156106645760008281526002602090815260408083206001600160a01b0385168085529252808320805460ff1916905551339285917ff6391f5c32d9c69d2a47ea670b442974b53935d1edc7fd64eb21e047a839171b9190a45050565b60015460ff16610cde5760405162461bcd60e51b815260206004820152601460248201527f5061757361626c653a206e6f742070617573656400000000000000000000000060448201526064016103bd565b6001805460ff191690557f5db9ee0a495bf2e6ff9c91a7834c1ba4fdd244a5e8aa4e537bd38aeae4b073aa335b6040516001600160a01b03909116815260200160405180910390a1565b60015460ff1615610d6e5760405162461bcd60e51b815260206004820152601060248201526f14185d5cd8589b194e881c185d5cd95960821b60448201526064016103bd565b6001805460ff1916811790557f62e78cea01bee320cd4e420270b5ea74000d11b0c9f74754ebdbfc544b05a25833610d0b565b60008281526002602090815260408083206001600160a01b038516845290915290205460ff1661066457610ddf816001600160a01b03166014610e21565b610dea836020610e21565b604051602001610dfb929190611148565b60408051601f198184030181529082905262461bcd60e51b82526103bd916004016111c9565b60606000610e308360026110d7565b610e3b9060026110bf565b67ffffffffffffffff811115610e5357610e536111fc565b6040519080825280601f01601f191660200182016040528015610e7d576020820181803683370190505b509050600360fc1b81600081518110610e9857610e98611212565b60200101906001600160f81b031916908160001a905350600f60fb1b81600181518110610ec757610ec7611212565b60200101906001600160f81b031916908160001a9053506000610eeb8460026110d7565b610ef69060016110bf565b90505b6001811115610f7b577f303132333435363738396162636465660000000000000000000000000000000085600f1660108110610f3757610f37611212565b1a60f81b828281518110610f4d57610f4d611212565b60200101906001600160f81b031916908160001a90535060049490941c93610f7481611228565b9050610ef9565b508315610b565760405162461bcd60e51b815260206004820181905260248201527f537472696e67733a20686578206c656e67746820696e73756666696369656e7460448201526064016103bd565b600060208284031215610fdc57600080fd5b81356001600160e01b031981168114610b5657600080fd5b60006020828403121561100657600080fd5b5035919050565b80356001600160a01b038116811461102457600080fd5b919050565b6000806040838503121561103c57600080fd5b8235915061104c6020840161100d565b90509250929050565b60006020828403121561106757600080fd5b610b568261100d565b634e487b7160e01b600052601160045260246000fd5b60008282101561109857611098611070565b500390565b6000602082840312156110af57600080fd5b81518015158114610b5657600080fd5b600082198211156110d2576110d2611070565b500190565b60008160001904831182151516156110f1576110f1611070565b500290565b60008261111357634e487b7160e01b600052601260045260246000fd5b500490565b60005b8381101561113357818101518382015260200161111b565b83811115611142576000848401525b50505050565b7f416363657373436f6e74726f6c3a206163636f756e7420000000000000000000815260008351611180816017850160208801611118565b7f206973206d697373696e6720726f6c652000000000000000000000000000000060179184019182015283516111bd816028840160208801611118565b01602801949350505050565b60208152600082518060208401526111e8816040850160208701611118565b601f01601f19169190910160400192915050565b634e487b7160e01b600052604160045260246000fd5b634e487b7160e01b600052603260045260246000fd5b60008161123757611237611070565b50600019019056fea164736f6c634300080d000a60806040523480156200001157600080fd5b5060405162001193380380620011938339810160408190526200003491620002b0565b60405180604001604052806008815260200167135bd8dad4985a5960c21b8152506040518060400160405280600381526020016213549160ea1b8152508160039080519060200190620000899291906200020a565b5080516200009f9060049060208401906200020a565b505050620000bc620000b6620000df60201b60201c565b620000e3565b6001600160a01b0381163314620000d857620000d88162000135565b506200031e565b3390565b600580546001600160a01b038381166001600160a01b0319831681179093556040519116919082907f8be0079c531659141344cd1fd0a4f28419497f9722a3daafe3b4186f6b6457e090600090a35050565b6005546001600160a01b03163314620001955760405162461bcd60e51b815260206004820181905260248201527f4f776e61626c653a2063616c6c6572206973206e6f7420746865206f776e657260448201526064015b60405180910390fd5b6001600160a01b038116620001fc5760405162461bcd60e51b815260206004820152602660248201527f4f776e61626c653a206e6577206f776e657220697320746865207a65726f206160448201526564647265737360d01b60648201526084016200018c565b6200020781620000e3565b50565b8280546200021890620002e2565b90600052602060002090601f0160209004810192826200023c576000855562000287565b82601f106200025757805160ff191683800117855562000287565b8280016001018555821562000287579182015b82811115620002875782518255916020019190600101906200026a565b506200029592915062000299565b5090565b5b808211156200029557600081556001016200029a565b600060208284031215620002c357600080fd5b81516001600160a01b0381168114620002db57600080fd5b9392505050565b600181811c90821680620002f757607f821691505b6020821081036200031857634e487b7160e01b600052602260045260246000fd5b50919050565b610e65806200032e6000396000f3fe608060405234801561001057600080fd5b506004361061011b5760003560e01c806370a08231116100b257806395d89b4111610081578063a9059cbb11610066578063a9059cbb1461024a578063dd62ed3e1461025d578063f2fde38b1461029657600080fd5b806395d89b411461022f578063a457c2d71461023757600080fd5b806370a08231146101d0578063715018a6146101f957806379cc6790146102015780638da5cb5b1461021457600080fd5b8063313ce567116100ee578063313ce56714610186578063395093511461019557806340c10f19146101a857806342966c68146101bd57600080fd5b806306fdde0314610120578063095ea7b31461013e57806318160ddd1461016157806323b872dd14610173575b600080fd5b6101286102a9565b6040516101359190610c94565b60405180910390f35b61015161014c366004610d05565b61033b565b6040519015158152602001610135565b6002545b604051908152602001610135565b610151610181366004610d2f565b610353565b60405160128152602001610135565b6101516101a3366004610d05565b610377565b6101bb6101b6366004610d05565b6103b6565b005b6101bb6101cb366004610d6b565b610423565b6101656101de366004610d84565b6001600160a01b031660009081526020819052604090205490565b6101bb610430565b6101bb61020f366004610d05565b610496565b6005546040516001600160a01b039091168152602001610135565b6101286104ab565b610151610245366004610d05565b6104ba565b610151610258366004610d05565b610564565b61016561026b366004610da6565b6001600160a01b03918216600090815260016020908152604080832093909416825291909152205490565b6101bb6102a4366004610d84565b610572565b6060600380546102b890610dd9565b80601f01602080910402602001604051908101604052809291908181526020018280546102e490610dd9565b80156103315780601f1061030657610100808354040283529160200191610331565b820191906000526020600020905b81548152906001019060200180831161031457829003601f168201915b5050505050905090565b600033610349818585610651565b5060019392505050565b600033610361858285610776565b61036c858585610808565b506001949350505050565b3360008181526001602090815260408083206001600160a01b038716845290915281205490919061034990829086906103b1908790610e29565b610651565b6005546001600160a01b031633146104155760405162461bcd60e51b815260206004820181905260248201527f4f776e61626c653a2063616c6c6572206973206e6f7420746865206f776e657260448201526064015b60405180910390fd5b61041f8282610a05565b5050565b61042d3382610ae4565b50565b6005546001600160a01b0316331461048a5760405162461bcd60e51b815260206004820181905260248201527f4f776e61626c653a2063616c6c6572206973206e6f7420746865206f776e6572604482015260640161040c565b6104946000610c2a565b565b6104a1823383610776565b61041f8282610ae4565b6060600480546102b890610dd9565b3360008181526001602090815260408083206001600160a01b0387168452909152812054909190838110156105575760405162461bcd60e51b815260206004820152602560248201527f45524332303a2064656372656173656420616c6c6f77616e63652062656c6f7760448201527f207a65726f000000000000000000000000000000000000000000000000000000606482015260840161040c565b61036c8286868403610651565b600033610349818585610808565b6005546001600160a01b031633146105cc5760405162461bcd60e51b815260206004820181905260248201527f4f776e61626c653a2063616c6c6572206973206e6f7420746865206f776e6572604482015260640161040c565b6001600160a01b0381166106485760405162461bcd60e51b815260206004820152602660248201527f4f776e61626c653a206e6577206f776e657220697320746865207a65726f206160448201527f6464726573730000000000000000000000000000000000000000000000000000606482015260840161040c565b61042d81610c2a565b6001600160a01b0383166106b35760405162461bcd60e51b8152602060048201526024808201527f45524332303a20617070726f76652066726f6d20746865207a65726f206164646044820152637265737360e01b606482015260840161040c565b6001600160a01b0382166107145760405162461bcd60e51b815260206004820152602260248201527f45524332303a20617070726f766520746f20746865207a65726f206164647265604482015261737360f01b606482015260840161040c565b6001600160a01b0383811660008181526001602090815260408083209487168084529482529182902085905590518481527f8c5be1e5ebec7d5bd14f71427d1e84f3dd0314c0f7b2291e5b200ac8c7c3b92591015b60405180910390a3505050565b6001600160a01b03838116600090815260016020908152604080832093861683529290522054600019811461080257818110156107f55760405162461bcd60e51b815260206004820152601d60248201527f45524332303a20696e73756666696369656e7420616c6c6f77616e6365000000604482015260640161040c565b6108028484848403610651565b50505050565b6001600160a01b0383166108845760405162461bcd60e51b815260206004820152602560248201527f45524332303a207472616e736665722066726f6d20746865207a65726f20616460448201527f6472657373000000000000000000000000000000000000000000000000000000606482015260840161040c565b6001600160a01b0382166108e65760405162461bcd60e51b815260206004820152602360248201527f45524332303a207472616e7366657220746f20746865207a65726f206164647260448201526265737360e81b606482015260840161040c565b6001600160a01b038316600090815260208190526040902054818110156109755760405162461bcd60e51b815260206004820152602660248201527f45524332303a207472616e7366657220616d6f756e742065786365656473206260448201527f616c616e63650000000000000000000000000000000000000000000000000000606482015260840161040c565b6001600160a01b038085166000908152602081905260408082208585039055918516815290812080548492906109ac908490610e29565b92505081905550826001600160a01b0316846001600160a01b03167fddf252ad1be2c89b69c2b068fc378daa952ba7f163c4a11628f55a4df523b3ef846040516109f891815260200190565b60405180910390a3610802565b6001600160a01b038216610a5b5760405162461bcd60e51b815260206004820152601f60248201527f45524332303a206d696e7420746f20746865207a65726f206164647265737300604482015260640161040c565b8060026000828254610a6d9190610e29565b90915550506001600160a01b03821660009081526020819052604081208054839290610a9a908490610e29565b90915550506040518181526001600160a01b038316906000907fddf252ad1be2c89b69c2b068fc378daa952ba7f163c4a11628f55a4df523b3ef9060200160405180910390a35050565b6001600160a01b038216610b445760405162461bcd60e51b815260206004820152602160248201527f45524332303a206275726e2066726f6d20746865207a65726f206164647265736044820152607360f81b606482015260840161040c565b6001600160a01b03821660009081526020819052604090205481811015610bb85760405162461bcd60e51b815260206004820152602260248201527f45524332303a206275726e20616d6f756e7420657863656564732062616c616e604482015261636560f01b606482015260840161040c565b6001600160a01b0383166000908152602081905260408120838303905560028054849290610be7908490610e41565b90915550506040518281526000906001600160a01b038516907fddf252ad1be2c89b69c2b068fc378daa952ba7f163c4a11628f55a4df523b3ef90602001610769565b600580546001600160a01b038381167fffffffffffffffffffffffff0000000000000000000000000000000000000000831681179093556040519116919082907f8be0079c531659141344cd1fd0a4f28419497f9722a3daafe3b4186f6b6457e090600090a35050565b600060208083528351808285015260005b81811015610cc157858101830151858201604001528201610ca5565b81811115610cd3576000604083870101525b50601f01601f1916929092016040019392505050565b80356001600160a01b0381168114610d0057600080fd5b919050565b60008060408385031215610d1857600080fd5b610d2183610ce9565b946020939093013593505050565b600080600060608486031215610d4457600080fd5b610d4d84610ce9565b9250610d5b60208501610ce9565b9150604084013590509250925092565b600060208284031215610d7d57600080fd5b5035919050565b600060208284031215610d9657600080fd5b610d9f82610ce9565b9392505050565b60008060408385031215610db957600080fd5b610dc283610ce9565b9150610dd060208401610ce9565b90509250929050565b600181811c90821680610ded57607f821691505b602082108103610e0d57634e487b7160e01b600052602260045260246000fd5b50919050565b634e487b7160e01b600052601160045260246000fd5b60008219821115610e3c57610e3c610e13565b500190565b600082821015610e5357610e53610e13565b50039056fea164736f6c634300080d000a",
  "devdoc": {
    "author": "bitbeckers",
    "custom:source": "This is an example contract.",
    "kind": "dev",
    "methods": {
      "getRoleAdmin(bytes32)": {
        "details": "Returns the admin role that controls `role`. See {grantRole} and {revokeRole}. To change a role's admin, use {_setRoleAdmin}."
      },
      "grantRole(bytes32,address)": {
        "details": "Grants `role` to `account`. If `account` had not been already granted `role`, emits a {RoleGranted} event. Requirements: - the caller must have ``role``'s admin role."
      },
      "hasRole(bytes32,address)": {
        "details": "Returns `true` if `account` has been granted `role`."
      },
      "paused()": {
        "details": "Returns true if the contract is paused, and false otherwise."
      },
      "renounceRole(bytes32,address)": {
        "details": "Revokes `role` from the calling account. Roles are often managed via {grantRole} and {revokeRole}: this function's purpose is to provide a mechanism for accounts to lose their privileges if they are compromised (such as when a trusted device is misplaced). If the calling account had been revoked `role`, emits a {RoleRevoked} event. Requirements: - the caller must be `account`."
      },
      "revokeRole(bytes32,address)": {
        "details": "Revokes `role` from `account`. If `account` had been granted `role`, emits a {RoleRevoked} event. Requirements: - the caller must have ``role``'s admin role."
      },
      "supportsInterface(bytes4)": {
        "details": "See {IERC165-supportsInterface}."
      }
    },
    "title": "Calculates and pays out staking rewards",
    "version": 1
  },
  "userdoc": {
    "kind": "user",
    "methods": {},
    "version": 1
  },
  "storageLayout": {
    "storage": [
      {
        "astId": 600,
        "contract": "contracts/Staking_Pool.sol:Staking_Pool",
        "label": "_status",
        "offset": 0,
        "slot": "0",
        "type": "t_uint256"
      },
      {
        "astId": 515,
        "contract": "contracts/Staking_Pool.sol:Staking_Pool",
        "label": "_paused",
        "offset": 0,
        "slot": "1",
        "type": "t_bool"
      },
      {
        "astId": 24,
        "contract": "contracts/Staking_Pool.sol:Staking_Pool",
        "label": "_roles",
        "offset": 0,
        "slot": "2",
        "type": "t_mapping(t_bytes32,t_struct(RoleData)19_storage)"
      },
      {
        "astId": 3251,
        "contract": "contracts/Staking_Pool.sol:Staking_Pool",
        "label": "_stakeToken",
        "offset": 0,
        "slot": "3",
        "type": "t_address"
      },
      {
        "astId": 3253,
        "contract": "contracts/Staking_Pool.sol:Staking_Pool",
        "label": "_rewardToken",
        "offset": 0,
        "slot": "4",
        "type": "t_address"
      },
      {
        "astId": 3258,
        "contract": "contracts/Staking_Pool.sol:Staking_Pool",
        "label": "_stakes",
        "offset": 0,
        "slot": "5",
        "type": "t_mapping(t_address,t_struct(Stake)3278_storage)"
      },
      {
        "astId": 3260,
        "contract": "contracts/Staking_Pool.sol:Staking_Pool",
        "label": "_totalStaked",
        "offset": 0,
        "slot": "6",
        "type": "t_uint256"
      },
      {
        "astId": 3262,
        "contract": "contracts/Staking_Pool.sol:Staking_Pool",
        "label": "_lastUpdateTime",
        "offset": 0,
        "slot": "7",
        "type": "t_uint256"
      },
      {
        "astId": 3264,
        "contract": "contracts/Staking_Pool.sol:Staking_Pool",
        "label": "_rewardPerTokenStored",
        "offset": 0,
        "slot": "8",
        "type": "t_uint256"
      },
      {
        "astId": 3269,
        "contract": "contracts/Staking_Pool.sol:Staking_Pool",
        "label": "_rewardRate",
        "offset": 0,
        "slot": "9",
        "type": "t_uint256"
      }
    ],
    "types": {
      "t_address": {
        "encoding": "inplace",
        "label": "address",
        "numberOfBytes": "20"
      },
      "t_bool": {
        "encoding": "inplace",
        "label": "bool",
        "numberOfBytes": "1"
      },
      "t_bytes32": {
        "encoding": "inplace",
        "label": "bytes32",
        "numberOfBytes": "32"
      },
      "t_mapping(t_address,t_bool)": {
        "encoding": "mapping",
        "key": "t_address",
        "label": "mapping(address => bool)",
        "numberOfBytes": "32",
        "value": "t_bool"
      },
      "t_mapping(t_address,t_struct(Stake)3278_storage)": {
        "encoding": "mapping",
        "key": "t_address",
        "label": "mapping(address => struct Staking_Pool.Stake)",
        "numberOfBytes": "32",
        "value": "t_struct(Stake)3278_storage"
      },
      "t_mapping(t_bytes32,t_struct(RoleData)19_storage)": {
        "encoding": "mapping",
        "key": "t_bytes32",
        "label": "mapping(bytes32 => struct AccessControl.RoleData)",
        "numberOfBytes": "32",
        "value": "t_struct(RoleData)19_storage"
      },
      "t_struct(RoleData)19_storage": {
        "encoding": "inplace",
        "label": "struct AccessControl.RoleData",
        "members": [
          {
            "astId": 16,
            "contract": "contracts/Staking_Pool.sol:Staking_Pool",
            "label": "members",
            "offset": 0,
            "slot": "0",
            "type": "t_mapping(t_address,t_bool)"
          },
          {
            "astId": 18,
            "contract": "contracts/Staking_Pool.sol:Staking_Pool",
            "label": "adminRole",
            "offset": 0,
            "slot": "1",
            "type": "t_bytes32"
          }
        ],
        "numberOfBytes": "64"
      },
      "t_struct(Stake)3278_storage": {
        "encoding": "inplace",
        "label": "struct Staking_Pool.Stake",
        "members": [
          {
            "astId": 3271,
            "contract": "contracts/Staking_Pool.sol:Staking_Pool",
            "label": "balance",
            "offset": 0,
            "slot": "0",
            "type": "t_uint256"
          },
          {
            "astId": 3273,
            "contract": "contracts/Staking_Pool.sol:Staking_Pool",
            "label": "timestamp",
            "offset": 0,
            "slot": "1",
            "type": "t_uint256"
          },
          {
            "astId": 3275,
            "contract": "contracts/Staking_Pool.sol:Staking_Pool",
            "label": "rewards",
            "offset": 0,
            "slot": "2",
            "type": "t_uint256"
          },
          {
            "astId": 3277,
            "contract": "contracts/Staking_Pool.sol:Staking_Pool",
            "label": "userRewardPerTokenPaid",
            "offset": 0,
            "slot": "3",
            "type": "t_uint256"
          }
        ],
        "numberOfBytes": "128"
      },
      "t_uint256": {
        "encoding": "inplace",
        "label": "uint256",
        "numberOfBytes": "32"
      }
    }
  }
}